{
  "contractName": "CaptureTheFlag",
  "abi": [
    {
      "inputs": [
        {
          "internalType": "address",
          "name": "_forwarder",
          "type": "address"
        }
      ],
      "stateMutability": "nonpayable",
      "type": "constructor"
    },
    {
      "anonymous": false,
      "inputs": [
        {
          "indexed": false,
          "internalType": "address",
          "name": "previousHolder",
          "type": "address"
        },
        {
          "indexed": false,
          "internalType": "address",
          "name": "currentHolder",
          "type": "address"
        }
      ],
      "name": "FlagCaptured",
      "type": "event"
    },
    {
      "inputs": [],
      "name": "currentHolder",
      "outputs": [
        {
          "internalType": "address",
          "name": "",
          "type": "address"
        }
      ],
      "stateMutability": "view",
      "type": "function",
      "constant": true
    },
    {
      "inputs": [
        {
          "internalType": "address",
          "name": "forwarder",
          "type": "address"
        }
      ],
      "name": "isTrustedForwarder",
      "outputs": [
        {
          "internalType": "bool",
          "name": "",
          "type": "bool"
        }
      ],
      "stateMutability": "view",
      "type": "function",
      "constant": true
    },
    {
      "inputs": [],
      "name": "trustedForwarder",
      "outputs": [
        {
          "internalType": "address",
          "name": "",
          "type": "address"
        }
      ],
      "stateMutability": "view",
      "type": "function",
      "constant": true
    },
    {
      "inputs": [],
      "name": "versionRecipient",
      "outputs": [
        {
          "internalType": "string",
          "name": "",
          "type": "string"
        }
      ],
      "stateMutability": "view",
      "type": "function",
      "constant": true
    },
    {
      "inputs": [],
      "name": "captureTheFlag",
      "outputs": [],
      "stateMutability": "nonpayable",
      "type": "function"
    }
  ],
  "bytecode": "0x60806040526040518060400160405280600581526020017f322e322e300000000000000000000000000000000000000000000000000000008152506001908051906020019061004f92919061012a565b506000600260006101000a81548173ffffffffffffffffffffffffffffffffffffffff021916908373ffffffffffffffffffffffffffffffffffffffff16021790555034801561009e57600080fd5b50604051610640380380610640833981810160405260208110156100c157600080fd5b81019080805190602001909291905050506100e1816100e760201b60201c565b506101d5565b806000806101000a81548173ffffffffffffffffffffffffffffffffffffffff021916908373ffffffffffffffffffffffffffffffffffffffff16021790555050565b828054600181600116156101000203166002900490600052602060002090601f01602090048101928261016057600085556101a7565b82601f1061017957805160ff19168380011785556101a7565b828001600101855582156101a7579182015b828111156101a657825182559160200191906001019061018b565b5b5090506101b491906101b8565b5090565b5b808211156101d15760008160009055506001016101b9565b5090565b61045c806101e46000396000f3fe608060405234801561001057600080fd5b50600436106100565760003560e01c80624225b81461005b578063239e26f21461008f578063486ff0cd14610099578063572b6c051461011c5780637da0a87714610176575b600080fd5b6100636101aa565b604051808273ffffffffffffffffffffffffffffffffffffffff16815260200191505060405180910390f35b6100976101d0565b005b6100a16102cf565b6040518080602001828103825283818151815260200191508051906020019080838360005b838110156100e15780820151818401526020810190506100c6565b50505050905090810190601f16801561010e5780820380516001836020036101000a031916815260200191505b509250505060405180910390f35b61015e6004803603602081101561013257600080fd5b81019080803573ffffffffffffffffffffffffffffffffffffffff16906020019092919050505061036d565b60405180821515815260200191505060405180910390f35b61017e6103c6565b604051808273ffffffffffffffffffffffffffffffffffffffff16815260200191505060405180910390f35b600260009054906101000a900473ffffffffffffffffffffffffffffffffffffffff1681565b6000600260009054906101000a900473ffffffffffffffffffffffffffffffffffffffff1690506101ff6103ef565b600260006101000a81548173ffffffffffffffffffffffffffffffffffffffff021916908373ffffffffffffffffffffffffffffffffffffffff1602179055507facc718a11fbc93a22905740808767480f9efd07b1c0b0128095790cd1440048d81600260009054906101000a900473ffffffffffffffffffffffffffffffffffffffff16604051808373ffffffffffffffffffffffffffffffffffffffff1681526020018273ffffffffffffffffffffffffffffffffffffffff1681526020019250505060405180910390a150565b60018054600181600116156101000203166002900480601f0160208091040260200160405190810160405280929190818152602001828054600181600116156101000203166002900480156103655780601f1061033a57610100808354040283529160200191610365565b820191906000526020600020905b81548152906001019060200180831161034857829003601f168201915b505050505081565b60008060009054906101000a900473ffffffffffffffffffffffffffffffffffffffff1673ffffffffffffffffffffffffffffffffffffffff168273ffffffffffffffffffffffffffffffffffffffff16149050919050565b60008060009054906101000a900473ffffffffffffffffffffffffffffffffffffffff16905090565b6000601460003690501015801561040b575061040a3361036d565b5b1561041f57601436033560601c9050610423565b3390505b9056fea2646970667358221220306e4fee8197b1149b3b2fcc4a3c2204a457ca0d98a2861810ae96f19450ea1e64736f6c63430007060033",
  "immutableReferences": {},
  "source": "/**\n * SPDX-License-Identifier:MIT\n */\npragma solidity ^0.7.6;\n\nimport \"@opengsn/contracts/src/BaseRelayRecipient.sol\";\n\ncontract CaptureTheFlag is BaseRelayRecipient{\n\n    event FlagCaptured(address previousHolder, address currentHolder);\n\n    constructor(address _forwarder){\n        _setTrustedForwarder(_forwarder);\n    }\n\n    string public override versionRecipient = \"2.2.0\";\n    address public currentHolder = address(0);\n    function captureTheFlag() external {\n        address previousHolder = currentHolder;\n\n        currentHolder = _msgSender();\n\n        emit FlagCaptured(previousHolder, currentHolder);\n    }\n}\n",
  "sourcePath": "/home/mehul/RapidInnovation/Projects/OpenGSN/workshop/contracts/CaptureTheFlag.sol",
  "compiler": {
    "name": "solc",
    "version": "0.7.6+commit.7338295f.Emscripten.clang"
  },
  "schemaVersion": "3.4.4",
  "updatedAt": "2022-02-16T11:18:15.071Z",
  "networkType": "ethereum",
  "devdoc": {
    "kind": "dev",
    "methods": {},
    "version": 1
  },
  "userdoc": {
    "kind": "user",
    "methods": {
      "isTrustedForwarder(address)": {
        "notice": "return if the forwarder is trusted to forward relayed transactions to us. the forwarder is required to verify the sender's signature, and verify the call is not a replay."
      }
    },
    "version": 1
  }
}